{
  "_format": "hh-sol-artifact-1",
  "contractName": "AuctionManager",
  "sourceName": "contracts/AuctionManager.sol",
  "abi": [
    {
      "anonymous": false,
      "inputs": [
        {
          "indexed": false,
          "internalType": "uint256",
          "name": "id",
          "type": "uint256"
        },
        {
          "indexed": false,
          "internalType": "string",
          "name": "itemName",
          "type": "string"
        },
        {
          "indexed": false,
          "internalType": "uint256",
          "name": "startingPrice",
          "type": "uint256"
        },
        {
          "indexed": false,
          "internalType": "uint256",
          "name": "endTime",
          "type": "uint256"
        }
      ],
      "name": "AuctionCreated",
      "type": "event"
    },
    {
      "anonymous": false,
      "inputs": [
        {
          "indexed": false,
          "internalType": "uint256",
          "name": "id",
          "type": "uint256"
        },
        {
          "indexed": false,
          "internalType": "address",
          "name": "winner",
          "type": "address"
        },
        {
          "indexed": false,
          "internalType": "uint256",
          "name": "amount",
          "type": "uint256"
        }
      ],
      "name": "AuctionEnded",
      "type": "event"
    },
    {
      "anonymous": false,
      "inputs": [
        {
          "indexed": false,
          "internalType": "uint256",
          "name": "id",
          "type": "uint256"
        },
        {
          "indexed": false,
          "internalType": "address",
          "name": "bidder",
          "type": "address"
        },
        {
          "indexed": false,
          "internalType": "uint256",
          "name": "amount",
          "type": "uint256"
        }
      ],
      "name": "HighestBidIncreased",
      "type": "event"
    },
    {
      "inputs": [
        {
          "internalType": "uint256",
          "name": "",
          "type": "uint256"
        }
      ],
      "name": "auctions",
      "outputs": [
        {
          "internalType": "uint256",
          "name": "id",
          "type": "uint256"
        },
        {
          "internalType": "address payable",
          "name": "creator",
          "type": "address"
        },
        {
          "internalType": "string",
          "name": "itemName",
          "type": "string"
        },
        {
          "internalType": "string",
          "name": "itemDescription",
          "type": "string"
        },
        {
          "internalType": "string",
          "name": "itemImage",
          "type": "string"
        },
        {
          "internalType": "uint256",
          "name": "startingPrice",
          "type": "uint256"
        },
        {
          "internalType": "uint256",
          "name": "highestBid",
          "type": "uint256"
        },
        {
          "internalType": "address payable",
          "name": "highestBidder",
          "type": "address"
        },
        {
          "internalType": "uint256",
          "name": "endTime",
          "type": "uint256"
        },
        {
          "internalType": "bool",
          "name": "ended",
          "type": "bool"
        }
      ],
      "stateMutability": "view",
      "type": "function"
    },
    {
      "inputs": [
        {
          "internalType": "uint256",
          "name": "_auctionId",
          "type": "uint256"
        }
      ],
      "name": "bid",
      "outputs": [],
      "stateMutability": "payable",
      "type": "function"
    },
    {
      "inputs": [
        {
          "internalType": "string",
          "name": "_itemName",
          "type": "string"
        },
        {
          "internalType": "string",
          "name": "_itemDescription",
          "type": "string"
        },
        {
          "internalType": "string",
          "name": "_itemImage",
          "type": "string"
        },
        {
          "internalType": "uint256",
          "name": "_startingPrice",
          "type": "uint256"
        },
        {
          "internalType": "uint256",
          "name": "_durationSeconds",
          "type": "uint256"
        }
      ],
      "name": "createAuction",
      "outputs": [],
      "stateMutability": "nonpayable",
      "type": "function"
    },
    {
      "inputs": [
        {
          "internalType": "uint256",
          "name": "_auctionId",
          "type": "uint256"
        }
      ],
      "name": "endAuction",
      "outputs": [],
      "stateMutability": "nonpayable",
      "type": "function"
    },
    {
      "inputs": [
        {
          "internalType": "uint256",
          "name": "_auctionId",
          "type": "uint256"
        }
      ],
      "name": "getAuction",
      "outputs": [
        {
          "components": [
            {
              "internalType": "uint256",
              "name": "id",
              "type": "uint256"
            },
            {
              "internalType": "address payable",
              "name": "creator",
              "type": "address"
            },
            {
              "internalType": "string",
              "name": "itemName",
              "type": "string"
            },
            {
              "internalType": "string",
              "name": "itemDescription",
              "type": "string"
            },
            {
              "internalType": "string",
              "name": "itemImage",
              "type": "string"
            },
            {
              "internalType": "uint256",
              "name": "startingPrice",
              "type": "uint256"
            },
            {
              "internalType": "uint256",
              "name": "highestBid",
              "type": "uint256"
            },
            {
              "internalType": "address payable",
              "name": "highestBidder",
              "type": "address"
            },
            {
              "internalType": "uint256",
              "name": "endTime",
              "type": "uint256"
            },
            {
              "internalType": "bool",
              "name": "ended",
              "type": "bool"
            }
          ],
          "internalType": "struct AuctionManager.Auction",
          "name": "",
          "type": "tuple"
        }
      ],
      "stateMutability": "view",
      "type": "function"
    },
    {
      "inputs": [],
      "name": "getAuctions",
      "outputs": [
        {
          "components": [
            {
              "internalType": "uint256",
              "name": "id",
              "type": "uint256"
            },
            {
              "internalType": "address payable",
              "name": "creator",
              "type": "address"
            },
            {
              "internalType": "string",
              "name": "itemName",
              "type": "string"
            },
            {
              "internalType": "string",
              "name": "itemDescription",
              "type": "string"
            },
            {
              "internalType": "string",
              "name": "itemImage",
              "type": "string"
            },
            {
              "internalType": "uint256",
              "name": "startingPrice",
              "type": "uint256"
            },
            {
              "internalType": "uint256",
              "name": "highestBid",
              "type": "uint256"
            },
            {
              "internalType": "address payable",
              "name": "highestBidder",
              "type": "address"
            },
            {
              "internalType": "uint256",
              "name": "endTime",
              "type": "uint256"
            },
            {
              "internalType": "bool",
              "name": "ended",
              "type": "bool"
            }
          ],
          "internalType": "struct AuctionManager.Auction[]",
          "name": "",
          "type": "tuple[]"
        }
      ],
      "stateMutability": "view",
      "type": "function"
    },
    {
      "inputs": [
        {
          "internalType": "uint256",
          "name": "",
          "type": "uint256"
        },
        {
          "internalType": "address",
          "name": "",
          "type": "address"
        }
      ],
      "name": "pendingReturns",
      "outputs": [
        {
          "internalType": "uint256",
          "name": "",
          "type": "uint256"
        }
      ],
      "stateMutability": "view",
      "type": "function"
    },
    {
      "inputs": [
        {
          "internalType": "uint256",
          "name": "_auctionId",
          "type": "uint256"
        }
      ],
      "name": "withdraw",
      "outputs": [
        {
          "internalType": "bool",
          "name": "",
          "type": "bool"
        }
      ],
      "stateMutability": "nonpayable",
      "type": "function"
    }
  ],
  "bytecode": "0x608060405234801561001057600080fd5b50612484806100206000396000f3fe60806040526004361061007b5760003560e01c806378bd79351161004e57806378bd7935146101485780638ddac1ef14610185578063b9a2de3a146101c2578063d7c06919146101eb5761007b565b80632e1a7d4d14610080578063454a2ab3146100bd578063571a26a0146100d957806358574dca1461011f575b600080fd5b34801561008c57600080fd5b506100a760048036038101906100a29190611436565b610216565b6040516100b4919061147e565b60405180910390f35b6100d760048036038101906100d29190611436565b61036f565b005b3480156100e557600080fd5b5061010060048036038101906100fb9190611436565b610621565b6040516101169a99989796959493929190611579565b60405180910390f35b34801561012b57600080fd5b506101466004803603810190610141919061175f565b61086a565b005b34801561015457600080fd5b5061016f600480360381019061016a9190611436565b610b12565b60405161017c919061198d565b60405180910390f35b34801561019157600080fd5b506101ac60048036038101906101a791906119ed565b610e3b565b6040516101b99190611a2d565b60405180910390f35b3480156101ce57600080fd5b506101e960048036038101906101e49190611436565b610e60565b005b3480156101f757600080fd5b50610200611066565b60405161020d9190611bf2565b60405180910390f35b6000806001600084815260200190815260200160002060003373ffffffffffffffffffffffffffffffffffffffff1673ffffffffffffffffffffffffffffffffffffffff16815260200190815260200160002054905060008111156103645760006001600085815260200190815260200160002060003373ffffffffffffffffffffffffffffffffffffffff1673ffffffffffffffffffffffffffffffffffffffff168152602001908152602001600020819055503373ffffffffffffffffffffffffffffffffffffffff166108fc829081150290604051600060405180830381858888f1935050505061036357806001600085815260200190815260200160002060003373ffffffffffffffffffffffffffffffffffffffff1673ffffffffffffffffffffffffffffffffffffffff16815260200190815260200160002081905550600091505061036a565b5b60019150505b919050565b60008054905081106103b6576040517f08c379a00000000000000000000000000000000000000000000000000000000081526004016103ad90611c60565b60405180910390fd5b60008082815481106103cb576103ca611c80565b5b90600052602060002090600a0201905080600801544210610421576040517f08c379a000000000000000000000000000000000000000000000000000000000815260040161041890611cfb565b60405180910390fd5b80600601543411610467576040517f08c379a000000000000000000000000000000000000000000000000000000000815260040161045e90611d67565b60405180910390fd5b80600501543410156104ae576040517f08c379a00000000000000000000000000000000000000000000000000000000081526004016104a590611df9565b60405180910390fd5b600073ffffffffffffffffffffffffffffffffffffffff168160070160009054906101000a900473ffffffffffffffffffffffffffffffffffffffff1673ffffffffffffffffffffffffffffffffffffffff16146105965780600601546001600084815260200190815260200160002060008360070160009054906101000a900473ffffffffffffffffffffffffffffffffffffffff1673ffffffffffffffffffffffffffffffffffffffff1673ffffffffffffffffffffffffffffffffffffffff168152602001908152602001600020600082825461058e9190611e48565b925050819055505b348160060181905550338160070160006101000a81548173ffffffffffffffffffffffffffffffffffffffff021916908373ffffffffffffffffffffffffffffffffffffffff1602179055507fda0a18da71d8ebd145966339a728fc0d8ccc07c22870d561890d823c515dda6b82333460405161061593929190611e8b565b60405180910390a15050565b6000818154811061063157600080fd5b90600052602060002090600a02016000915090508060000154908060010160009054906101000a900473ffffffffffffffffffffffffffffffffffffffff169080600201805461068090611ef1565b80601f01602080910402602001604051908101604052809291908181526020018280546106ac90611ef1565b80156106f95780601f106106ce576101008083540402835291602001916106f9565b820191906000526020600020905b8154815290600101906020018083116106dc57829003601f168201915b50505050509080600301805461070e90611ef1565b80601f016020809104026020016040519081016040528092919081815260200182805461073a90611ef1565b80156107875780601f1061075c57610100808354040283529160200191610787565b820191906000526020600020905b81548152906001019060200180831161076a57829003601f168201915b50505050509080600401805461079c90611ef1565b80601f01602080910402602001604051908101604052809291908181526020018280546107c890611ef1565b80156108155780601f106107ea57610100808354040283529160200191610815565b820191906000526020600020905b8154815290600101906020018083116107f857829003601f168201915b5050505050908060050154908060060154908060070160009054906101000a900473ffffffffffffffffffffffffffffffffffffffff16908060080154908060090160009054906101000a900460ff1690508a565b600081116108ad576040517f08c379a00000000000000000000000000000000000000000000000000000000081526004016108a490611f6e565b60405180910390fd5b600082116108f0576040517f08c379a00000000000000000000000000000000000000000000000000000000081526004016108e790611fda565b60405180910390fd5b60008080549050905060006040518061014001604052808381526020013373ffffffffffffffffffffffffffffffffffffffff16815260200188815260200187815260200186815260200185815260200160008152602001600073ffffffffffffffffffffffffffffffffffffffff16815260200184426109719190611e48565b81526020016000151581525090806001815401808255809150506001900390600052602060002090600a02016000909190919091506000820151816000015560208201518160010160006101000a81548173ffffffffffffffffffffffffffffffffffffffff021916908373ffffffffffffffffffffffffffffffffffffffff1602179055506040820151816002019081610a0c91906121a6565b506060820151816003019081610a2291906121a6565b506080820151816004019081610a3891906121a6565b5060a0820151816005015560c0820151816006015560e08201518160070160006101000a81548173ffffffffffffffffffffffffffffffffffffffff021916908373ffffffffffffffffffffffffffffffffffffffff16021790555061010082015181600801556101208201518160090160006101000a81548160ff02191690831515021790555050507f5bf34ed94988e5dcdc7d1faaa54eb1d3b55f45d5f11457e235afb21a8ebbe73c8187858542610af29190611e48565b604051610b029493929190612278565b60405180910390a1505050505050565b610b1a61136b565b6000805490508210610b61576040517f08c379a0000000000000000000000000000000000000000000000000000000008152600401610b5890611c60565b60405180910390fd5b60008281548110610b7557610b74611c80565b5b90600052602060002090600a020160405180610140016040529081600082015481526020016001820160009054906101000a900473ffffffffffffffffffffffffffffffffffffffff1673ffffffffffffffffffffffffffffffffffffffff1673ffffffffffffffffffffffffffffffffffffffff168152602001600282018054610bff90611ef1565b80601f0160208091040260200160405190810160405280929190818152602001828054610c2b90611ef1565b8015610c785780601f10610c4d57610100808354040283529160200191610c78565b820191906000526020600020905b815481529060010190602001808311610c5b57829003601f168201915b50505050508152602001600382018054610c9190611ef1565b80601f0160208091040260200160405190810160405280929190818152602001828054610cbd90611ef1565b8015610d0a5780601f10610cdf57610100808354040283529160200191610d0a565b820191906000526020600020905b815481529060010190602001808311610ced57829003601f168201915b50505050508152602001600482018054610d2390611ef1565b80601f0160208091040260200160405190810160405280929190818152602001828054610d4f90611ef1565b8015610d9c5780601f10610d7157610100808354040283529160200191610d9c565b820191906000526020600020905b815481529060010190602001808311610d7f57829003601f168201915b5050505050815260200160058201548152602001600682015481526020016007820160009054906101000a900473ffffffffffffffffffffffffffffffffffffffff1673ffffffffffffffffffffffffffffffffffffffff1673ffffffffffffffffffffffffffffffffffffffff168152602001600882015481526020016009820160009054906101000a900460ff1615151515815250509050919050565b6001602052816000526040600020602052806000526040600020600091509150505481565b6000805490508110610ea7576040517f08c379a0000000000000000000000000000000000000000000000000000000008152600401610e9e90611c60565b60405180910390fd5b6000808281548110610ebc57610ebb611c80565b5b90600052602060002090600a020190508060080154421015610f13576040517f08c379a0000000000000000000000000000000000000000000000000000000008152600401610f0a90612310565b60405180910390fd5b8060090160009054906101000a900460ff1615610f65576040517f08c379a0000000000000000000000000000000000000000000000000000000008152600401610f5c906123a2565b60405180910390fd5b60018160090160006101000a81548160ff0219169083151502179055507fd2aa34a4fdbbc6dff6a3e56f46e0f3ae2a31d7785ff3487aa5c95c642acea501828260070160009054906101000a900473ffffffffffffffffffffffffffffffffffffffff168360060154604051610fdd93929190612417565b60405180910390a1600081600601541115611062578060010160009054906101000a900473ffffffffffffffffffffffffffffffffffffffff1673ffffffffffffffffffffffffffffffffffffffff166108fc82600601549081150290604051600060405180830381858888f19350505050158015611060573d6000803e3d6000fd5b505b5050565b60606000805480602002602001604051908101604052809291908181526020016000905b8282101561136257838290600052602060002090600a020160405180610140016040529081600082015481526020016001820160009054906101000a900473ffffffffffffffffffffffffffffffffffffffff1673ffffffffffffffffffffffffffffffffffffffff1673ffffffffffffffffffffffffffffffffffffffff16815260200160028201805461111e90611ef1565b80601f016020809104026020016040519081016040528092919081815260200182805461114a90611ef1565b80156111975780601f1061116c57610100808354040283529160200191611197565b820191906000526020600020905b81548152906001019060200180831161117a57829003601f168201915b505050505081526020016003820180546111b090611ef1565b80601f01602080910402602001604051908101604052809291908181526020018280546111dc90611ef1565b80156112295780601f106111fe57610100808354040283529160200191611229565b820191906000526020600020905b81548152906001019060200180831161120c57829003601f168201915b5050505050815260200160048201805461124290611ef1565b80601f016020809104026020016040519081016040528092919081815260200182805461126e90611ef1565b80156112bb5780601f10611290576101008083540402835291602001916112bb565b820191906000526020600020905b81548152906001019060200180831161129e57829003601f168201915b5050505050815260200160058201548152602001600682015481526020016007820160009054906101000a900473ffffffffffffffffffffffffffffffffffffffff1673ffffffffffffffffffffffffffffffffffffffff1673ffffffffffffffffffffffffffffffffffffffff168152602001600882015481526020016009820160009054906101000a900460ff1615151515815250508152602001906001019061108a565b50505050905090565b60405180610140016040528060008152602001600073ffffffffffffffffffffffffffffffffffffffff1681526020016060815260200160608152602001606081526020016000815260200160008152602001600073ffffffffffffffffffffffffffffffffffffffff168152602001600081526020016000151581525090565b6000604051905090565b600080fd5b600080fd5b6000819050919050565b61141381611400565b811461141e57600080fd5b50565b6000813590506114308161140a565b92915050565b60006020828403121561144c5761144b6113f6565b5b600061145a84828501611421565b91505092915050565b60008115159050919050565b61147881611463565b82525050565b6000602082019050611493600083018461146f565b92915050565b6114a281611400565b82525050565b600073ffffffffffffffffffffffffffffffffffffffff82169050919050565b60006114d3826114a8565b9050919050565b6114e3816114c8565b82525050565b600081519050919050565b600082825260208201905092915050565b60005b83811015611523578082015181840152602081019050611508565b60008484015250505050565b6000601f19601f8301169050919050565b600061154b826114e9565b61155581856114f4565b9350611565818560208601611505565b61156e8161152f565b840191505092915050565b60006101408201905061158f600083018d611499565b61159c602083018c6114da565b81810360408301526115ae818b611540565b905081810360608301526115c2818a611540565b905081810360808301526115d68189611540565b90506115e560a0830188611499565b6115f260c0830187611499565b6115ff60e08301866114da565b61160d610100830185611499565b61161b61012083018461146f565b9b9a5050505050505050505050565b600080fd5b600080fd5b7f4e487b7100000000000000000000000000000000000000000000000000000000600052604160045260246000fd5b61166c8261152f565b810181811067ffffffffffffffff8211171561168b5761168a611634565b5b80604052505050565b600061169e6113ec565b90506116aa8282611663565b919050565b600067ffffffffffffffff8211156116ca576116c9611634565b5b6116d38261152f565b9050602081019050919050565b82818337600083830152505050565b60006117026116fd846116af565b611694565b90508281526020810184848401111561171e5761171d61162f565b5b6117298482856116e0565b509392505050565b600082601f8301126117465761174561162a565b5b81356117568482602086016116ef565b91505092915050565b600080600080600060a0868803121561177b5761177a6113f6565b5b600086013567ffffffffffffffff811115611799576117986113fb565b5b6117a588828901611731565b955050602086013567ffffffffffffffff8111156117c6576117c56113fb565b5b6117d288828901611731565b945050604086013567ffffffffffffffff8111156117f3576117f26113fb565b5b6117ff88828901611731565b935050606061181088828901611421565b925050608061182188828901611421565b9150509295509295909350565b61183781611400565b82525050565b611846816114c8565b82525050565b600082825260208201905092915050565b6000611868826114e9565b611872818561184c565b9350611882818560208601611505565b61188b8161152f565b840191505092915050565b61189f81611463565b82525050565b6000610140830160008301516118be600086018261182e565b5060208301516118d1602086018261183d565b50604083015184820360408601526118e9828261185d565b91505060608301518482036060860152611903828261185d565b9150506080830151848203608086015261191d828261185d565b91505060a083015161193260a086018261182e565b5060c083015161194560c086018261182e565b5060e083015161195860e086018261183d565b5061010083015161196d61010086018261182e565b50610120830151611982610120860182611896565b508091505092915050565b600060208201905081810360008301526119a781846118a5565b905092915050565b60006119ba826114a8565b9050919050565b6119ca816119af565b81146119d557600080fd5b50565b6000813590506119e7816119c1565b92915050565b60008060408385031215611a0457611a036113f6565b5b6000611a1285828601611421565b9250506020611a23858286016119d8565b9150509250929050565b6000602082019050611a426000830184611499565b92915050565b600081519050919050565b600082825260208201905092915050565b6000819050602082019050919050565b600061014083016000830151611a8d600086018261182e565b506020830151611aa0602086018261183d565b5060408301518482036040860152611ab8828261185d565b91505060608301518482036060860152611ad2828261185d565b91505060808301518482036080860152611aec828261185d565b91505060a0830151611b0160a086018261182e565b5060c0830151611b1460c086018261182e565b5060e0830151611b2760e086018261183d565b50610100830151611b3c61010086018261182e565b50610120830151611b51610120860182611896565b508091505092915050565b6000611b688383611a74565b905092915050565b6000602082019050919050565b6000611b8882611a48565b611b928185611a53565b935083602082028501611ba485611a64565b8060005b85811015611be05784840389528151611bc18582611b5c565b9450611bcc83611b70565b925060208a01995050600181019050611ba8565b50829750879550505050505092915050565b60006020820190508181036000830152611c0c8184611b7d565b905092915050565b7f41756374696f6e20646f6573206e6f7420657869737400000000000000000000600082015250565b6000611c4a6016836114f4565b9150611c5582611c14565b602082019050919050565b60006020820190508181036000830152611c7981611c3d565b9050919050565b7f4e487b7100000000000000000000000000000000000000000000000000000000600052603260045260246000fd5b7f41756374696f6e20616c726561647920656e6465640000000000000000000000600082015250565b6000611ce56015836114f4565b9150611cf082611caf565b602082019050919050565b60006020820190508181036000830152611d1481611cd8565b9050919050565b7f546865726520616c726561647920697320612068696768657220626964000000600082015250565b6000611d51601d836114f4565b9150611d5c82611d1b565b602082019050919050565b60006020820190508181036000830152611d8081611d44565b9050919050565b7f426964206d757374206265206174206c6561737420746865207374617274696e60008201527f6720707269636500000000000000000000000000000000000000000000000000602082015250565b6000611de36027836114f4565b9150611dee82611d87565b604082019050919050565b60006020820190508181036000830152611e1281611dd6565b9050919050565b7f4e487b7100000000000000000000000000000000000000000000000000000000600052601160045260246000fd5b6000611e5382611400565b9150611e5e83611400565b9250828201905080821115611e7657611e75611e19565b5b92915050565b611e85816119af565b82525050565b6000606082019050611ea06000830186611499565b611ead6020830185611e7c565b611eba6040830184611499565b949350505050565b7f4e487b7100000000000000000000000000000000000000000000000000000000600052602260045260246000fd5b60006002820490506001821680611f0957607f821691505b602082108103611f1c57611f1b611ec2565b5b50919050565b7f4475726174696f6e206d757374206265203e2030000000000000000000000000600082015250565b6000611f586014836114f4565b9150611f6382611f22565b602082019050919050565b60006020820190508181036000830152611f8781611f4b565b9050919050565b7f5374617274696e67207072696365206d757374206265203e2030000000000000600082015250565b6000611fc4601a836114f4565b9150611fcf82611f8e565b602082019050919050565b60006020820190508181036000830152611ff381611fb7565b9050919050565b60008190508160005260206000209050919050565b60006020601f8301049050919050565b600082821b905092915050565b60006008830261205c7fffffffffffffffffffffffffffffffffffffffffffffffffffffffffffffffff8261201f565b612066868361201f565b95508019841693508086168417925050509392505050565b6000819050919050565b60006120a361209e61209984611400565b61207e565b611400565b9050919050565b6000819050919050565b6120bd83612088565b6120d16120c9826120aa565b84845461202c565b825550505050565b600090565b6120e66120d9565b6120f18184846120b4565b505050565b5b818110156121155761210a6000826120de565b6001810190506120f7565b5050565b601f82111561215a5761212b81611ffa565b6121348461200f565b81016020851015612143578190505b61215761214f8561200f565b8301826120f6565b50505b505050565b600082821c905092915050565b600061217d6000198460080261215f565b1980831691505092915050565b6000612196838361216c565b9150826002028217905092915050565b6121af826114e9565b67ffffffffffffffff8111156121c8576121c7611634565b5b6121d28254611ef1565b6121dd828285612119565b600060209050601f83116001811461221057600084156121fe578287015190505b612208858261218a565b865550612270565b601f19841661221e86611ffa565b60005b8281101561224657848901518255600182019150602085019450602081019050612221565b86831015612263578489015161225f601f89168261216c565b8355505b6001600288020188555050505b505050505050565b600060808201905061228d6000830187611499565b818103602083015261229f8186611540565b90506122ae6040830185611499565b6122bb6060830184611499565b95945050505050565b7f41756374696f6e206e6f742079657420656e6465640000000000000000000000600082015250565b60006122fa6015836114f4565b9150612305826122c4565b602082019050919050565b60006020820190508181036000830152612329816122ed565b9050919050565b7f656e6441756374696f6e2068617320616c7265616479206265656e2063616c6c60008201527f6564000000000000000000000000000000000000000000000000000000000000602082015250565b600061238c6022836114f4565b915061239782612330565b604082019050919050565b600060208201905081810360008301526123bb8161237f565b9050919050565b60006123dd6123d86123d3846114a8565b61207e565b6114a8565b9050919050565b60006123ef826123c2565b9050919050565b6000612401826123e4565b9050919050565b612411816123f6565b82525050565b600060608201905061242c6000830186611499565b6124396020830185612408565b6124466040830184611499565b94935050505056fea26469706673582212207236f162244efa5d265a25c52aacfbcfc13c4336489bd63734ffb39671b903f264736f6c63430008180033",
  "linkReferences": {},
  "deployedLinkReferences": {}
}